:100000000C942A000C944C0D0C94790D0C94A60DB4
:100010000C9447000C9447000C9447000C94470044
:100020000C9447000C9447000C9447000C94470034
:100030000C9447000C9447000C9447000C94470024
:100040000C9447000C9447000C9447000C94470014
:100050000C94470011241FBECFE5D8E0DEBFCDBF12
:1000600010E0A0E6B0E0ECECF7E302C005900D92E2
:10007000AE38B107D9F710E0AEE8B0E001C01D928C
:10008000A939B107E1F70E944F1A0C94E41B0C94B4
:100090000000EF92FF920F931F937B018C0120E0F1
:1000A00030E040E05FE40E94490388238CF0C801FF
:1000B000B70120E030E040E05FE40E94C1010E940F
:1000C000A9039B01AC01205030404040504806C07D
:1000D000C801B7010E94A9039B01AC01B901CA0183
:1000E0001F910F91FF90EF900895A0E0B0E0EBE733
:1000F000F0E00C94AD1BDC012B01FA019C919230D5
:1001000008F439C1EB018881823008F433C194309E
:1001100069F4843009F02FC111969C91119789815F
:10012000981709F428C1A3E8B0E025C1843009F488
:1001300021C18230A9F4923009F01DC19A01AD01AC
:1001400088E0EA010990AE01E90109929E0181501F
:10015000C1F7E201898111969C918923818308C1AD
:10016000923009F407C112962D903C901397EB0141
:100170008A819B811496AD90BD90CD90DC901797AD
:10018000EC80FD800E811F819101281B390BB90184
:1001900037FF04C066277727621B730B6032710537
:1001A0000CF061C0121613066CF537014801062EDB
:1001B00004C096948794779467940A94D2F721E0C8
:1001C00030E040E050E004C0220F331F441F551FB1
:1001D0006A95D2F721503040404050402E213F21B7
:1001E00040235123211531054105510521F021E01E
:1001F00030E040E050E079018A01E628F72808293C
:1002000019293CC0232BD1F1260E371E350146019A
:10021000062E04C096948794779467940A94D2F734
:1002200021E030E040E050E004C0220F331F441FC3
:10023000551F6A95D2F721503040404050402A2146
:100240003B214C215D21211531054105510521F04E
:1002500021E030E040E050E059016A01A628B728CB
:10026000C828D9280BC0821593052CF01C01AA249C
:10027000BB24650103C0EE24FF24870111969C91E5
:10028000D20111968C91981709F445C0992339F041
:10029000A80197012A193B094C095D0906C0A6016E
:1002A00095012E193F09400B510B57FD08C01182D3
:1002B0003382228224833583468357831DC081E0A5
:1002C00081833382228288279927DC01821B930B4A
:1002D000A40BB50B84839583A683B7830DC0220F2F
:1002E000331F441F551F24833583468357838281E0
:1002F000938101979383828324813581468157813D
:10030000DA01C9010197A109B1098F5F9F4FAF4F72
:10031000BF4328F30BC0918333822282EA0CFB1C7B
:100320000C1D1D1DE482F5820683178383E0808304
:10033000248135814681578157FF1AC0C901AA27F8
:1003400097FDA095BA2F81709070A070B0705695EF
:10035000479537952795822B932BA42BB52B848318
:100360009583A683B7838281938101969383828349
:10037000DF0101C0D201CD01CDB7DEB7E2E10C94BF
:10038000C91BA0E2B0E0E7ECF1E00C94B91B698373
:100390007A838B839C832D833E834F835887E9E048
:1003A000EE2EF12CEC0EFD1ECE010196B7010E943F
:1003B000D2048E010F5E1F4FCE010596B8010E9438
:1003C000D2048A8991E089278A8BC701B801AE01DE
:1003D000475E5F4F0E9475000E94FD03A096E6E015
:1003E0000C94D51BA0E2B0E0E8EFF1E00C94B91B4F
:1003F00069837A838B839C832D833E834F835887C5
:10040000F9E0EF2EF12CEC0EFD1ECE010196B701A6
:100410000E94D2048E010F5E1F4FCE010596B801D7
:100420000E94D204C701B801AE01475E5F4F0E942F
:1004300075000E94FD03A096E6E00C94D51BA0E297
:10044000B0E0E5E2F2E00C94AD1B69837A838B8324
:100450009C832D833E834F835887CE010196BE0136
:10046000675F7F4F0E94D204CE010596BE016F5E8A
:100470007F4F0E94D2049985923088F0898982301A
:10048000C8F0943019F4823051F404C0843029F457
:10049000923081F483E890E0C6C0923049F420E0C5
:1004A0009A858A89981321E02A87CE010996BBC0D4
:1004B000823049F420E09A858A89981321E02A8BBA
:1004C000CE014196B0C02D843E844F8458886D88FB
:1004D0007E888F88988CEE24FF248701AA24BB2471
:1004E000650140E050E060E070E0E0E0F0E0C10174
:1004F00081709070892BE9F0E60CF71C081D191D1E
:100500009A01AB012A0D3B1D4C1D5D1D80E090E062
:10051000A0E0B0E0E614F7040805190520F481E036
:1005200090E0A0E0B0E0BA01A901480F591F6A1F8E
:100530007B1FAA0CBB1CCC1CDD1C97FE08C081E0F5
:1005400090E0A0E0B0E0A82AB92ACA2ADB2A3196B6
:10055000E032F10549F0660C771C881C991C569412
:10056000479437942794C3CFFA85EA892B893C892D
:100570008B859C85280F391F2E5F3F4F17C0CA01FE
:1005800081709070892B61F016950795F794E79428
:1005900080E090E0A0E0B0E8E82AF92A0A2B1B2BC3
:1005A00076956795579547952F5F3F4F77FDE7CF36
:1005B0000CC0440F551F661F771F17FD4160EE0CDE
:1005C000FF1C001F111F21503040403090E05907A0
:1005D00090E0690790E4790760F32B8F3C8FDB0193
:1005E000CA018F779070A070B07080349105A1051A
:1005F000B10561F447FD0AC0E114F10401051105DC
:1006000029F0405C5F4F6F4F7F4F40781A8EFE1786
:1006100011F081E08A8F4D8F5E8F6F8F78A383E01A
:10062000898FCE0149960E94FD03A096E2E10C94C9
:10063000C91BA8E1B0E0EFE1F3E00C94B91B6983BA
:100640007A838B839C832D833E834F83588789E0F5
:10065000E82EF12CEC0EFD1ECE010196B7010E9492
:10066000D2048E010F5E1F4FCE010596B8010E9485
:10067000D2048985823040F08989823028F0C70110
:10068000B8010E944A0501C08FEF6896E6E00C941D
:10069000D51BA8E1B0E0EFE4F3E00C94B91B69834B
:1006A0007A838B839C832D833E834F83588789E095
:1006B000E82EF12CEC0EFD1ECE010196B7010E9432
:1006C000D2048E010F5E1F4FCE010596B8010E9425
:1006D000D2048985823040F08989823028F0C701B0
:1006E000B8010E944A0501C08FEF6896E6E00C94BD
:1006F000D51BA8E1B0E0EFE7F3E00C94B91B6983E8
:100700007A838B839C832D833E834F83588789E034
:10071000E82EF12CEC0EFD1ECE010196B7010E94D1
:10072000D2048E010F5E1F4FCE010596B8010E94C4
:10073000D2048985823040F08989823028F0C7014F
:10074000B8010E944A0501C081E06896E6E00C9479
:10075000D51BACE0B0E0EFEAF3E00C94BD1B69837D
:100760007A838B839C83CE010196BE016B5F7F4FA2
:100770000E94D2048D81823061F1823050F1843048
:1007800021F48E81882351F12EC02F81388537FDC9
:1007900020C06E812F3131051CF06623F9F023C093
:1007A0008EE190E0821B930B29853A854B855C8511
:1007B00004C056954795379527958A95D2F76623B5
:1007C000B1F050954095309521953F4F4F4F5F4F79
:1007D0000EC020E030E040E050E009C02FEF3FEFD6
:1007E0004FEF5FE704C020E030E040E050E8B9019F
:1007F000CA012C96E2E00C94D91BDF92EF92FF9293
:100800000F931F93FC01E480F58006811781D1804E
:100810008081823048F480E090E0A0E1B0E0E82AF6
:10082000F92A0A2B1B2BA5C0843009F49FC0823003
:1008300021F4EE24FF24870105C0E114F104010531
:10084000110519F4E0E0F0E096C0628173819FEF3A
:10085000623879070CF05BC022E83FEF261B370BAC
:100860002A3131052CF020E030E040E050E02AC091
:10087000B801A701022E04C0769567955795479554
:100880000A94D2F781E090E0A0E0B0E004C0880FC5
:10089000991FAA1FBB1F2A95D2F70197A109B10979
:1008A0008E219F21A023B1230097A105B10521F03E
:1008B00081E090E0A0E0B0E09A01AB01282B392B59
:1008C0004A2B5B2BDA01C9018F779070A070B07052
:1008D00080349105A105B10539F427FF09C0205CDA
:1008E0003F4F4F4F5F4F04C0215C3F4F4F4F5F4F13
:1008F000E0E0F0E02030A0E03A07A0E04A07A0E402
:100900005A0710F0E1E0F0E079018A0127C0603871
:10091000710564F5FB01E158FF4FD801C7018F77DE
:100920009070A070B07080349105A105B10539F4C4
:10093000E7FE0DC080E490E0A0E0B0E004C08FE3EB
:1009400090E0A0E0B0E0E80EF91E0A1F1B1F17FFA1
:1009500005C016950795F794E794319687E01695AC
:100960000795F794E7948A95D1F705C0EE24FF2404
:100970008701EFEFF0E06E2F679566276795902F60
:100980009F77D794DD24D7948E2F8695492F462BB9
:10099000582F5D29B701CA011F910F91FF90EF9069
:1009A000DF900895FC01DB01408151812281622F9B
:1009B0006F7770E0221F2227221F9381892F880FD3
:1009C000822B282F30E0991F9927991F11969C930D
:1009D000119721153105A9F54115510561057105DD
:1009E00011F482E037C082E89FEF13969C938E93B8
:1009F00012979A01AB0167E0220F331F441F551F66
:100A00006A95D1F783E08C930DC0220F331F441FEA
:100A1000551F12968D919C911397019713969C9355
:100A20008E931297203080E0380780E0480780E4FA
:100A3000580758F314962D933D934D935C93179755
:100A400008952F3F310579F4411551056105710570
:100A500019F484E08C93089564FF03C081E08C93C3
:100A600012C01C9210C02F57304013963C932E9307
:100A7000129783E08C9387E0440F551F661F771F02
:100A80008A95D1F7706414964D935D936D937C9322
:100A9000179708951F93DC01FB019C91923008F495
:100AA00047C08081823008F443C0943051F41196DD
:100AB0001C91843099F58181682F70E0611B710968
:100AC0003FC0843021F0923031F48230B9F181811D
:100AD000882389F12DC011961C9111978230F1F075
:100AE00081811817D9F412962D913C911397828128
:100AF00093818217930794F028173907BCF0149656
:100B00008D919D910D90BC91A02D248135814681C0
:100B10005781281739074A075B0718F4112341F05A
:100B20000AC082179307A407B50740F4112319F0F0
:100B300061E070E005C06FEF7FEF02C060E070E041
:100B4000CB011F910895DF93CF93CDB7DEB7A7E216
:100B5000B0E0E7E2F0E0808180648C93A7E2B0E04F
:100B6000E7E2F0E080818F778C93A7E2B0E0E7E2E4
:100B7000F0E080818F7D8C93A6E2B0E0E6E2F0E0C9
:100B8000808181608C93A6E2B0E0E6E2F0E08081B3
:100B900082608C93A6E2B0E0E6E2F0E080818460BF
:100BA0008C93A6E2B0E0E6E2F0E0808180628C9374
:100BB000A6E2B0E0E6E2F0E0808180688C93CF911D
:100BC000DF910895DF93CF9300D000D00F92CDB77F
:100BD000DEB78D8319821A821B821C82A6E2B0E0E6
:100BE000E6E2F0E0808180648C93A7E2B0E0E7E287
:100BF000F0E08081807E8C93A7E2B0E0E7E2F0E055
:100C000090818D81892B8C9316C089819A81AB81CB
:100C1000BC810196A11DB11D89839A83AB83BC83DE
:100C2000E6E2F0E0808182958F70882F90E08170FD
:100C30009070882361F489819A81AB81BC8180386E
:100C400024E892072EE1A20720E0B207F0F2E4E2E6
:100C5000F0E0808191810F900F900F900F900F9096
:100C6000CF91DF910895DF93CF93CDB7DEB784E2C4
:100C700061E00E946408CF91DF910895DF93CF93E4
:100C8000CDB7DEB784E261E00E947A09CF91DF91AF
:100C90000895DF93CF93CDB7DEB784E260E00E9482
:100CA0007A09CF91DF910895DF93CF93CDB7DEB767
:100CB00084E20E94170BCF91DF910895DF93CF93C9
:100CC000CDB7DEB72E970FB6F894DEBF0FBECDBFFF
:100CD00084E261E00E947A0980E090E0A8ECB2E44E
:100CE0008B879C87AD87BE876B857C858D859E8530
:100CF00020E030E04AE755E40E941F02DC01CB010E
:100D00008F839887A987BA876F81788589859A8527
:100D100020E030E040E85FE30E94790388232CF470
:100D200081E090E09E838D833FC06F8178858985C7
:100D30009A8520E03FEF4FE757E40E941903181609
:100D40004CF56B857C858D859E8520E030E040E20A
:100D500051E40E941F02DC01CB01BC01CD010E94C5
:100D60004900DC01CB019E838D830FC080E991E0B7
:100D70009C838B838B819C810197F1F79C838B8370
:100D80008D819E8101979E838D838D819E810097A9
:100D900069F714C06F81788589859A850E9449001A
:100DA000DC01CB019E838D838D819E819A83898313
:100DB00089819A810197F1F79A83898384E260E0BF
:100DC0000E947A092E960FB6F894DEBF0FBECDBFF3
:100DD000CF91DF910895DF93CF93CDB7DEB7AA9778
:100DE0000FB6F894DEBF0FBECDBF84E261E00E9473
:100DF0007A0980E090E0A8ECB2E48FA398A7A9A7B5
:100E0000BAA76FA178A589A59AA520E030E04AE7A6
:100E100055E40E941F02DC01CB018BA39CA3ADA370
:100E2000BEA36BA17CA18DA19EA120E030E040E893
:100E30005FE30E94790388232CF481E090E09AA379
:100E400089A33FC06BA17CA18DA19EA120E03FEFB3
:100E50004FE757E40E94190318164CF56FA178A5C7
:100E600089A59AA520E030E040E251E40E941F02EB
:100E7000DC01CB01BC01CD010E944900DC01CB01AA
:100E80009AA389A30FC080E991E098A38F8F8F8DDB
:100E900098A10197F1F798A38F8F89A19AA1019743
:100EA0009AA389A389A19AA1009769F714C06BA19D
:100EB0007CA18DA19EA10E944900DC01CB019AA3D7
:100EC00089A389A19AA19E8F8D8F8D8D9E8D01976B
:100ED000F1F79E8F8D8F84E260E00E947A0980E0B6
:100EE00090E0A0E7B2E4898F9A8FAB8FBC8F698DB9
:100EF0007A8D8B8D9C8D20E030E04AE755E40E948E
:100F00001F02DC01CB018D8B9E8BAF8BB88F6D895F
:100F10007E898F89988D20E030E040E85FE30E9471
:100F2000790388232CF481E090E09C8B8B8B3FC06D
:100F30006D897E898F89988D20E03FEF4FE757E4D8
:100F40000E94190318164CF5698D7A8D8B8D9C8D36
:100F500020E030E040E251E40E941F02DC01CB01BE
:100F6000BC01CD010E944900DC01CB019C8B8B8B25
:100F70000FC080E991E09A8B898B89899A890197C2
:100F8000F1F79A8B898B8B899C8901979C8B8B8B32
:100F90008B899C89009769F714C06D897E898F8938
:100FA000988D0E944900DC01CB019C8B8B8B8B8937
:100FB0009C89988B8F878F8598890197F1F7988BFB
:100FC0008F8784E261E00E947A0980E090E0A8ECDB
:100FD000B2E48B879C87AD87BE876B857C858D85CA
:100FE0009E8520E030E04AE755E40E941F02DC01C4
:100FF000CB018F839887A987BA876F817885898588
:101000009A8520E030E040E85FE30E94790388237E
:101010002CF481E090E09E838D833FC06F817885C2
:1010200089859A8520E03FEF4FE757E40E94190336
:1010300018164CF56B857C858D859E8520E030E00B
:1010400040E251E40E941F02DC01CB01BC01CD0152
:101050000E944900DC01CB019E838D830FC080E993
:1010600091E09C838B838B819C810197F1F79C831A
:101070008B838D819E8101979E838D838D819E813F
:10108000009769F714C06F81788589859A850E94D9
:101090004900DC01CB019E838D838D819E819A83E3
:1010A000898389819A810197F1F79A83898384E200
:1010B00060E00E947A09AA960FB6F894DEBF0FBED0
:1010C000CDBFCF91DF910895DF93CF93CDB7DEB73A
:1010D0002A970FB6F894DEBF0FBECDBF8B836C830B
:1010E0008B819AE0692F0E94501B892F8A838B8104
:1010F0009AE0692F0E94501B89838C81282F30E051
:101100003A87298789859A85009739F029853A8514
:101110002130310509F476C0E4C08981282F30E000
:1011200038872F838F8198858230910561F12F81D7
:1011300038852330310534F48F81988581309105CD
:1011400069F0CFC02F8138852330310589F18F8137
:1011500098858430910509F440C0C3C0AAE3B0E08B
:10116000EAE3F0E08081482F8A81282F30E081E097
:1011700090E0022E02C0880F991F0A94E2F7809532
:1011800084238C93AEC0A7E3B0E0E7E3F0E0808176
:10119000482F8A81282F30E081E090E0022E02C0A3
:1011A000880F991F0A94E2F7809584238C9399C045
:1011B000A4E3B0E0E4E3F0E08081482F8A81282FA7
:1011C00030E081E090E0022E02C0880F991F0A945F
:1011D000E2F7809584238C9384C0A1E3B0E0E1E33F
:1011E000F0E08081482F8A81282F30E081E090E074
:1011F000022E02C0880F991F0A94E2F7809584237B
:101200008C936FC08981282F30E03E832D838D81A0
:101210009E818230910551F12D813E81233031052F
:1012200034F48D819E818130910561F05AC02D8109
:101230003E812330310571F18D819E81843091058D
:10124000E9F14FC0AAE3B0E0EAE3F0E08081482F83
:101250008A81282F30E081E090E0022E02C0880FC2
:10126000991F0A94E2F7842B8C933BC0A7E3B0E06C
:10127000E7E3F0E08081482F8A81282F30E081E089
:1012800090E0022E02C0880F991F0A94E2F7842B87
:101290008C9327C0A4E3B0E0E4E3F0E08081482F22
:1012A0008A81282F30E081E090E0022E02C0880F72
:1012B000991F0A94E2F7842B8C9313C0A1E3B0E04A
:1012C000E1E3F0E08081482F8A81282F30E081E03F
:1012D00090E0022E02C0880F991F0A94E2F7842B37
:1012E0008C932A960FB6F894DEBF0FBECDBFCF9178
:1012F000DF910895DF93CF93CDB7DEB72A970FB66E
:10130000F894DEBF0FBECDBF8B836C838B819AE0D8
:10131000692F0E94501B892F8A838B819AE0692F45
:101320000E94501B89838C81282F30E03A872987BF
:1013300089859A85009739F029853A8521303105CC
:1013400009F476C0E4C08981282F30E038872F83E4
:101350008F8198858230910561F12F813885233006
:10136000310534F48F8198858130910569F0CFC0C3
:101370002F8138852330310589F18F81988584301C
:10138000910509F440C0C3C0ABE3B0E0EBE3F0E08B
:101390008081482F8A81282F30E081E090E0022E62
:1013A00002C0880F991F0A94E2F7809584238C93DA
:1013B000AEC0A8E3B0E0E8E3F0E08081482F8A8186
:1013C000282F30E081E090E0022E02C0880F991FA4
:1013D0000A94E2F7809584238C9399C0A5E3B0E04A
:1013E000E5E3F0E08081482F8A81282F30E081E01A
:1013F00090E0022E02C0880F991F0A94E2F78095B0
:1014000084238C9384C0A2E3B0E0E2E3F0E0808127
:10141000482F8A81282F30E081E090E0022E02C020
:10142000880F991F0A94E2F7809584238C936FC0EC
:101430008981282F30E03E832D838D819E818230EB
:10144000910551F12D813E812330310534F48D8198
:101450009E818130910561F05AC02D813E812330FB
:10146000310571F18D819E8184309105E9F14FC084
:10147000ABE3B0E0EBE3F0E08081482F8A81282FD6
:1014800030E081E090E0022E02C0880F991F0A949C
:10149000E2F7842B8C933BC0A8E3B0E0E8E3F0E0F4
:1014A0008081482F8A81282F30E081E090E0022E51
:1014B00002C0880F991F0A94E2F7842B8C9327C0EF
:1014C000A5E3B0E0E5E3F0E08081482F8A81282F92
:1014D00030E081E090E0022E02C0880F991F0A944C
:1014E000E2F7842B8C9313C0A2E3B0E0E2E3F0E0D8
:1014F0008081482F8A81282F30E081E090E0022E01
:1015000002C0880F991F0A94E2F7842B8C932A96C5
:101510000FB6F894DEBF0FBECDBFCF91DF91089517
:10152000DF93CF9300D000D000D0CDB7DEB78C834F
:101530008C819AE0692F0E94501B892F8B838C81AC
:101540009AE0692F0E94501B8A8319828A81282F72
:1015500030E03E832D834D815E814230510541F163
:101560008D819E818330910534F42D813E8121301F
:10157000310561F052C04D815E814330510551F11A
:101580008D819E8184309105B9F147C0E9E3F0E097
:101590008081282F30E08B81882F90E0A90102C044
:1015A000559547958A95E2F7CA018170898335C0C0
:1015B000E6E3F0E08081282F30E08B81882F90E0F7
:1015C000A90102C0559547958A95E2F7CA01817035
:1015D000898323C0E3E3F0E08081282F30E08B8112
:1015E000882F90E0A90102C0559547958A95E2F7AA
:1015F000CA018170898311C0E0E3F0E08081282F67
:1016000030E08B81882F90E0A90102C05595479565
:101610008A95E2F7CA0181708983898126960FB67F
:10162000F894DEBF0FBECDBFCF91DF910895DF9359
:10163000CF9300D000D00F92CDB7DEB78B838B81D4
:101640009AE0692F0E94501B892F8A838B819AE030
:10165000692F0E94501B89838981282F30E03D83A8
:101660002C838C819D818230910551F12C813D81AB
:101670002330310534F48C819D818130910561F0F6
:101680005AC02C813D812330310571F18C819D81BF
:1016900084309105E9F14FC0ABE3B0E0EBE3F0E05B
:1016A0008081482F8A81282F30E081E090E0022E4F
:1016B00002C0880F991F0A94E2F784278C933BC0DD
:1016C000A8E3B0E0E8E3F0E08081482F8A81282F8A
:1016D00030E081E090E0022E02C0880F991F0A944A
:1016E000E2F784278C9327C0A5E3B0E0E5E3F0E0C0
:1016F0008081482F8A81282F30E081E090E0022EFF
:1017000002C0880F991F0A94E2F784278C9313C0B4
:10171000A2E3B0E0E2E3F0E08081482F8A81282F45
:1017200030E081E090E0022E02C0880F991F0A94F9
:10173000E2F784278C930F900F900F900F900F90EB
:10174000CF91DF910895DF93CF93CDB7DEB72A977E
:101750000FB6F894DEBF0FBECDBF8B836C838B8139
:101760009AE0692F0E94501B892F8A838B819AE00F
:10177000692F0E94501B89838C81282F30E03A8783
:10178000298789859A85009739F029853A852130FE
:10179000310509F476C0E4C08981282F30E038870C
:1017A0002F838F8198858230910561F12F81388553
:1017B0002330310534F48F8198858130910569F0AB
:1017C000CFC02F8138852330310589F18F819885ED
:1017D0008430910509F440C0C3C0ABE3B0E0EBE353
:1017E000F0E08081482F8A81282F30E081E090E06E
:1017F000022E02C0880F991F0A94E2F78095842375
:101800008C93AEC0A8E3B0E0E8E3F0E08081482F1D
:101810008A81282F30E081E090E0022E02C0880FFC
:10182000991F0A94E2F7809584238C9399C0A5E3CD
:10183000B0E0E5E3F0E08081482F8A81282F30E096
:1018400081E090E0022E02C0880F991F0A94E2F70F
:10185000809584238C9384C0A2E3B0E0E2E3F0E0BF
:101860008081482F8A81282F30E081E090E0022E8D
:1018700002C0880F991F0A94E2F7809584238C9305
:101880006FC08981282F30E03E832D838D819E811A
:101890008230910551F12D813E812330310534F4A0
:1018A0008D819E818130910561F05AC02D813E81EC
:1018B0002330310571F18D819E8184309105E9F1EC
:1018C0004FC0ABE3B0E0EBE3F0E08081482F8A81CA
:1018D000282F30E081E090E0022E02C0880F991F8F
:1018E0000A94E2F7842B8C933BC0A8E3B0E0E8E3D2
:1018F000F0E08081482F8A81282F30E081E090E05D
:10190000022E02C0880F991F0A94E2F7842B8C9351
:1019100027C0A5E3B0E0E5E3F0E08081482F8A81AD
:10192000282F30E081E090E0022E02C0880F991F3E
:101930000A94E2F7842B8C9313C0A2E3B0E0E2E3B5
:10194000F0E08081482F8A81282F30E081E090E00C
:10195000022E02C0880F991F0A94E2F7842B8C9301
:101960002A960FB6F894DEBF0FBECDBFCF91DF91A0
:101970000895DF93CF9300D00F92CDB7DEB7898360
:101980008981282F30E03B832A838A819B818130A3
:101990009105F9F02A813B812230310581F18A815C
:1019A0009B810097D1F5A5E5B0E0E5E5F0E0808109
:1019B0008E7F8C93A5E5B0E0E5E5F0E08081826064
:1019C0008C93ABE5B0E0EBE5F0E0808180648C9334
:1019D00024C0A5E5B0E0E5E5F0E0808184608C936B
:1019E000A5E5B0E0E5E5F0E0808188608C93ABE5AB
:1019F000B0E0EBE5F0E0808180688C930EC0A4E558
:101A0000B0E0E4E5F0E0808180648C93ABE5B0E089
:101A1000EBE5F0E0808180628C930F900F900F9047
:101A2000CF91DF910895DF93CF9300D000D00F9234
:101A3000CDB7DEB789837B836A838981282F30E025
:101A40003D832C838C819D818130910581F02C8197
:101A50003D812230310591F08C819D810097A1F468
:101A60008A819B8190939800809397000DC08A8112
:101A70009B81909394008093930006C08A819B8100
:101A800090939600809395000F900F900F900F9079
:101A90000F90CF91DF9108951F920F920FB60F9282
:101AA00011242F933F934F935F936F937F938F9363
:101AB0009F93AF93BF93EF93FF93DF93CF93CDB7F4
:101AC000DEB7E0919700F09198000995CF91DF91F2
:101AD000FF91EF91BF91AF919F918F917F916F9106
:101AE0005F914F913F912F910F900FBE0F901F90DC
:101AF00018951F920F920FB60F9211242F933F93B8
:101B00004F935F936F937F938F939F93AF93BF9305
:101B1000EF93FF93DF93CF93CDB7DEB7E0919300C0
:101B2000F09194000995CF91DF91FF91EF91BF91D2
:101B3000AF919F918F917F916F915F914F913F9165
:101B40002F910F900FBE0F901F9018951F920F921C
:101B50000FB60F9211242F933F934F935F936F9380
:101B60007F938F939F93AF93BF93EF93FF93DF93F5
:101B7000CF93CDB7DEB7E0919500F091960009952F
:101B8000CF91DF91FF91EF91BF91AF919F918F9195
:101B90007F916F915F914F913F912F910F900FBE69
:101BA0000F901F901895DF93CF93CDB7DEB7AFE5B9
:101BB000B0E0EFE5F0E0808180688C93CF91DF9119
:101BC0000895DF93CF93CDB7DEB7AFE5B0E0EFE593
:101BD000F0E080818F778C93CF91DF910895DF9330
:101BE000CF93CDB7DEB784E161E00E94640885E160
:101BF00061E00E94640886E161E00E94640888E177
:101C000061E00E9464088DE061E00E9464088CE05D
:101C100061E00E94640883E30E94591082E30E94FD
:101C2000591088E20E9459108CE00E94591082E0FD
:101C30000E94591081E00E945910CF91DF910895C0
:101C4000DF93CF93CDB7DEB7E9970FB6F894DEBF39
:101C50000FBECDBF89AF8DE061E00E947A0989ADEA
:101C600082958F70982F917084E1692F0E947A0974
:101C700089AD829586958770982F917085E1692F3F
:101C80000E947A0989AD8295869586958370982FF2
:101C9000917086E1692F0E947A0989AD982F991F6A
:101CA0009927991F88E1692F0E947A098CE061E0E9
:101CB0000E947A0980E090E0A0E8BFE38DAB9EAB84
:101CC000AFABB8AF6DA97EA98FA998AD20E030E089
:101CD0004AE755E40E941F02DC01CB0189AB9AABB5
:101CE000ABABBCAB69A97AA98BA99CA920E030E079
:101CF00040E85FE30E94790388232CF481E090E0C0
:101D000098AB8FA73FC069A97AA98BA99CA920E0AD
:101D10003FEF4FE757E40E94190318164CF56DA9E1
:101D20007EA98FA998AD20E030E040E251E40E9406
:101D30001F02DC01CB01BC01CD010E944900DC0186
:101D4000CB0198AB8FA70FC080E991E09EA78DA72C
:101D50008DA59EA50197F1F79EA78DA78FA598A9A0
:101D6000019798AB8FA78FA598A9009769F714C022
:101D700069A97AA98BA99CA90E944900DC01CB0121
:101D800098AB8FA78FA598A99CA78BA78BA59CA57F
:101D90000197F1F79CA78BA78CE060E00E947A097D
:101DA00080E090E0A0E8BFE38FA398A7A9A7BAA717
:101DB0006FA178A589A59AA520E030E04AE755E40F
:101DC0000E941F02DC01CB018BA39CA3ADA3BEA389
:101DD0006BA17CA18DA19EA120E030E040E85FE3F3
:101DE0000E94790388232CF481E090E09AA389A3D0
:101DF0003FC06BA17CA18DA19EA120E03FEF4FE7EA
:101E000057E40E94190318164CF56FA178A589A50F
:101E10009AA520E030E040E251E40E941F02DC017C
:101E2000CB01BC01CD010E944900DC01CB019AA38A
:101E300089A30FC080E991E098A38F8F8F8D98A11F
:101E40000197F1F798A38F8F89A19AA101979AA37F
:101E500089A389A19AA1009769F714C06BA17CA1FD
:101E60008DA19EA10E944900DC01CB019AA389A308
:101E700089A19AA19E8F8D8F8D8D9E8D0197F1F7EF
:101E80009E8F8D8F89AD982F917084E1692F0E946C
:101E90007A0989AD8695982F917085E1692F0E9406
:101EA0007A0989AD86958695982F917086E1692F7C
:101EB0000E947A0989AD869586958695982F9170AE
:101EC00088E1692F0E947A098CE061E00E947A091A
:101ED00080E090E0A0E8BFE3898F9A8FAB8FBC8F42
:101EE000698D7A8D8B8D9C8D20E030E04AE755E43A
:101EF0000E941F02DC01CB018D8B9E8BAF8BB88FB4
:101F00006D897E898F89988D20E030E040E85FE31D
:101F10000E94790388232CF481E090E09C8B8B8BCA
:101F20003FC06D897E898F89988D20E03FEF4FE714
:101F300057E40E94190318164CF5698D7A8D8B8D24
:101F40009C8D20E030E040E251E40E941F02DC0161
:101F5000CB01BC01CD010E944900DC01CB019C8B6F
:101F60008B8B0FC080E991E09A8B898B89899A8944
:101F70000197F1F79A8B898B8B899C8901979C8BB0
:101F80008B8B8B899C89009769F714C06D897E893A
:101F90008F89988D0E944900DC01CB019C8B8B8B33
:101FA0008B899C89988B8F878F8598890197F1F70A
:101FB000988B8F878CE060E00E947A0980E090E047
:101FC000A0EAB0E48B879C87AD87BE876B857C8554
:101FD0008D859E8520E030E04AE755E40E941F028F
:101FE000DC01CB018F839887A987BA876F817885B9
:101FF00089859A8520E030E040E85FE30E9479031C
:1020000088232CF481E090E09E838D833FC06F8114
:10201000788589859A8520E03FEF4FE757E40E9455
:10202000190318164CF56B857C858D859E8520E0FF
:1020300030E040E251E40E941F02DC01CB01BC0110
:10204000CD010E944900DC01CB019E838D830FC02E
:1020500080E991E09C838B838B819C810197F1F7D0
:102060009C838B838D819E8101979E838D838D813F
:102070009E81009769F714C06F81788589859A855C
:102080000E944900DC01CB019E838D838D819E815E
:102090009A83898389819A810197F1F79A83898349
:1020A000E9960FB6F894DEBF0FBECDBFCF91DF919A
:1020B0000895DF93CF93CDB7DEB7E9970FB6F894C5
:1020C000DEBF0FBECDBF89AF8DE060E00E947A0910
:1020D00089AD82958F70982F917084E1692F0E944D
:1020E0007A0989AD829586958770982F917085E1E0
:1020F000692F0E947A0989AD8295869586958370AD
:10210000982F917086E1692F0E947A0989AD982FE6
:10211000991F9927991F88E1692F0E947A098CE0FD
:1021200061E00E947A0980E090E0A0E8BFE38DAB17
:102130009EABAFABB8AF6DA97EA98FA998AD20E0DB
:1021400030E04AE755E40E941F02DC01CB0189AB75
:102150009AABABABBCAB69A97AA98BA99CA920E0CF
:1021600030E040E85FE30E94790388232CF481E0AB
:1021700090E098AB8FA73FC069A97AA98BA99CA9C9
:1021800020E03FEF4FE757E40E94190318164CF583
:102190006DA97EA98FA998AD20E030E040E251E41E
:1021A0000E941F02DC01CB01BC01CD010E9449004D
:1021B000DC01CB0198AB8FA70FC080E991E09EA70F
:1021C0008DA78DA59EA50197F1F79EA78DA78FA539
:1021D00098A9019798AB8FA78FA598A9009769F741
:1021E00014C069A97AA98BA99CA90E944900DC01A5
:1021F000CB0198AB8FA78FA598A99CA78BA78BA580
:102200009CA50197F1F79CA78BA78CE060E00E944A
:102210007A0980E090E0A0E8BFE38FA398A7A9A780
:10222000BAA76FA178A589A59AA520E030E04AE772
:1022300055E40E941F02DC01CB018BA39CA3ADA33C
:10224000BEA36BA17CA18DA19EA120E030E040E85F
:102250005FE30E94790388232CF481E090E09AA345
:1022600089A33FC06BA17CA18DA19EA120E03FEF7F
:102270004FE757E40E94190318164CF56FA178A593
:1022800089A59AA520E030E040E251E40E941F02B7
:10229000DC01CB01BC01CD010E944900DC01CB0176
:1022A0009AA389A30FC080E991E098A38F8F8F8DA7
:1022B00098A10197F1F798A38F8F89A19AA101970F
:1022C0009AA389A389A19AA1009769F714C06BA169
:1022D0007CA18DA19EA10E944900DC01CB019AA3A3
:1022E00089A389A19AA19E8F8D8F8D8D9E8D019737
:1022F000F1F79E8F8D8F89AD982F917084E1692FB2
:102300000E947A0989AD8695982F917085E1692F91
:102310000E947A0989AD86958695982F917086E1FD
:10232000692F0E947A0989AD869586958695982FA2
:10233000917088E1692F0E947A098CE061E00E9427
:102340007A0980E090E0A0E8BFE3898F9A8FAB8F95
:10235000BC8F698D7A8D8B8D9C8D20E030E04AE7B3
:1023600055E40E941F02DC01CB018D8B9E8BAF8B4D
:10237000B88F6D897E898F89988D20E030E040E8A4
:102380005FE30E94790388232CF481E090E09C8B2A
:102390008B8B3FC06D897E898F89988D20E03FEFC0
:1023A0004FE757E40E94190318164CF5698D7A8D92
:1023B0008B8D9C8D20E030E040E251E40E941F02B2
:1023C000DC01CB01BC01CD010E944900DC01CB0145
:1023D0009C8B8B8B0FC080E991E09A8B898B8989CC
:1023E0009A890197F1F79A8B898B8B899C89019740
:1023F0009C8B8B8B8B899C89009769F714C06D89A6
:102400007E898F89988D0E944900DC01CB019C8BCD
:102410008B8B8B899C89988B8F878F859889019767
:10242000F1F7988B8F878CE060E00E947A0980E05A
:1024300090E0A0EAB0E48B879C87AD87BE876B8570
:102440007C858D859E8520E030E04AE755E40E943A
:102450001F02DC01CB018F839887A987BA876F8120
:10246000788589859A8520E030E040E85FE30E9426
:10247000790388232CF481E090E09E838D833FC014
:102480006F81788589859A8520E03FEF4FE757E493
:102490000E94190318164CF56B857C858D859E85E9
:1024A00020E030E040E251E40E941F02DC01CB0159
:1024B000BC01CD010E944900DC01CB019E838D83CC
:1024C0000FC080E991E09C838B838B819C81019775
:1024D000F1F79C838B838D819E8101979E838D83F1
:1024E0008D819E81009769F714C06F8178858985F9
:1024F0009A850E944900DC01CB019E838D838D81EA
:102500009E819A83898389819A810197F1F79A83C1
:102510008983E9960FB6F894DEBF0FBECDBFCF9189
:10252000DF910895DF93CF9300D00F92CDB7DEB740
:102530009B838A8319820EC08981282F30E08A818B
:102540009B81FC01E20FF31F80810E94200E898194
:102550008F5F89838981282F30E08A819B81FC01EC
:10256000E20FF31F8081882F90E0009729F70F90EA
:102570000F900F90CF91DF910895DF93CF93CDB758
:10258000DEB781E00E945910CF91DF9108950F933B
:102590001F93DF93CF93CDB7DEB72F970FB6F89485
:1025A000DEBF0FBECDBF6C877D878E879F87198268
:1025B0008AE0FE013296DF01982F1D929A95E9F785
:1025C0008C859D85AE85BF85BB2394F48C859D85C8
:1025D000AE85BF85B095A095909581959F4FAF4FE3
:1025E000BF4F8C879D87AE87BF878DE20E94200EEC
:1025F0008981082F112707FD10958C859D85AE8553
:10260000BF852AE030E040E050E0BC01CD010E94EF
:10261000701BDC01CB01282FCE010296FC01E00FDC
:10262000F11F20838C859D85AE85BF852AE030E033
:1026300040E050E0BC01CD010E94701BDA01C901ED
:102640008C879D87AE87BF8789818F5F89838C85C3
:102650009D85AE85BF850097A105B10549F611C0DE
:102660008981815089838981282F332727FD3095DF
:10267000CE010296FC01E20FF31F8081805D0E9473
:10268000200E8981181664F32F960FB6F894DEBFDA
:102690000FBECDBFCF91DF911F910F910895DF93B2
:1026A000CF9300D000D000D0CDB7DEB78D836E833E
:1026B00080E8898380EC8A8384E98B8384ED8C8332
:1026C0008D81282F30E0CE010196FC01E20FF31F2F
:1026D00090818E81890F0E94591026960FB6F8942A
:1026E000DEBF0FBECDBFCF91DF910895DF93CF93B3
:1026F00000D00F92CDB7DEB789838981282F30E0D3
:102700003B832A838A819B8182309105D9F02A817B
:102710003B812330310534F48A819B8181309105DE
:1027200061F01EC02A813B812330310581F08A810E
:102730009B818430910581F013C080E161E00E94AB
:1027400064080EC08FE061E00E94640809C08EE05A
:1027500061E00E94640804C08BE161E00E946408AB
:102760000F900F900F90CF91DF910895DF93CF934B
:1027700000D00F92CDB7DEB789838981282F30E052
:102780003B832A838A819B8182309105D9F02A81FB
:102790003B812330310534F48A819B81813091055E
:1027A00061F01EC02A813B812330310581F08A818E
:1027B0009B818430910581F013C080E161E00E942B
:1027C0007A090EC08FE061E00E947A0909C08EE0AC
:1027D00061E00E947A0904C08BE161E00E947A09FD
:1027E0000F900F900F90CF91DF910895DF93CF93CB
:1027F00000D00F92CDB7DEB789838981282F30E0D2
:102800003B832A838A819B8182309105D9F02A817A
:102810003B812330310534F48A819B8181309105DD
:1028200061F01EC02A813B812330310581F08A810D
:102830009B818430910581F013C080E160E00E94AB
:102840007A090EC08FE060E00E947A0909C08EE02C
:1028500060E00E947A0904C08BE160E00E947A097E
:102860000F900F900F90CF91DF910895DF93CF934A
:10287000CDB7DEB7EB970FB6F894DEBF0FBECDBF76
:1028800089AF89AD282F30E03BAF2AAF8AAD9BAD31
:102890008230910509F493C02AAD3BAD2330310558
:1028A00034F48AAD9BAD8130910571F0F8C12AAD49
:1028B0003BAD2330310509F4FDC08AAD9BAD8430BA
:1028C000910509F472C1EBC180E161E00E947A09CF
:1028D00080E090E0A6E9B3E48DAB9EABAFABB8AFC0
:1028E0006DA97EA98FA998AD20E030E04AE755E4B4
:1028F0000E941F02DC01CB0189AB9AABABABBCAB36
:1029000069A97AA98BA99CA920E030E040E85FE39F
:102910000E94790388232CF481E090E098AB8FA784
:102920003FC069A97AA98BA99CA920E03FEF4FE796
:1029300057E40E94190318164CF56DA97EA98FA9BA
:1029400098AD20E030E040E251E40E941F02DC013B
:10295000CB01BC01CD010E944900DC01CB0198AB49
:102960008FA70FC080E991E09EA78DA78DA59EA59A
:102970000197F1F79EA78DA78FA598A9019798AB0E
:102980008FA78FA598A9009769F714C069A97AA99C
:102990008BA99CA90E944900DC01CB0198AB8FA7B1
:1029A0008FA598A99CA78BA78BA59CA50197F1F74C
:1029B0009CA78BA780E160E00E947A0970C18FE03C
:1029C00061E00E947A0980E090E0A6E9B3E48FA379
:1029D00098A7A9A7BAA76FA178A589A59AA520E06D
:1029E00030E04AE755E40E941F02DC01CB018BA3D3
:1029F0009CA3ADA3BEA36BA17CA18DA19EA120E051
:102A000030E040E85FE30E94790388232CF481E002
:102A100090E09AA389A33FC06BA17CA18DA19EA148
:102A200020E03FEF4FE757E40E94190318164CF5DA
:102A30006FA178A589A59AA520E030E040E251E495
:102A40000E941F02DC01CB01BC01CD010E944900A4
:102A5000DC01CB019AA389A30FC080E991E098A380
:102A60008F8F8F8D98A10197F1F798A38F8F89A1F0
:102A70009AA101979AA389A389A19AA1009769F7BE
:102A800014C06BA17CA18DA19EA10E944900DC0114
:102A9000CB019AA389A389A19AA19E8F8D8F8D8D39
:102AA0009E8D0197F1F79E8F8D8F8FE060E00E94E1
:102AB0007A09F5C08EE061E00E947A0980E090E03A
:102AC000A6E9B3E4898F9A8FAB8FBC8F698D7A8D1D
:102AD0008B8D9C8D20E030E04AE755E40E941F0278
:102AE000DC01CB018D8B9E8BAF8BB88F6D897E897E
:102AF0008F89988D20E030E040E85FE30E94790301
:102B000088232CF481E090E09C8B8B8B3FC06D89F7
:102B10007E898F89988D20E03FEF4FE757E40E9430
:102B2000190318164CF5698D7A8D8B8D9C8D20E0DC
:102B300030E040E251E40E941F02DC01CB01BC0105
:102B4000CD010E944900DC01CB019C8B8B8B0FC017
:102B500080E991E09A8B898B89899A890197F1F7AD
:102B60009A8B898B8B899C8901979C8B8B8B8B890A
:102B70009C89009769F714C06D897E898F89988D2B
:102B80000E944900DC01CB019C8B8B8B8B899C893B
:102B9000988B8F878F8598890197F1F7988B8F870E
:102BA0008EE060E00E947A097AC08BE161E00E94C9
:102BB0007A0980E090E0A6E9B3E48B879C87AD8733
:102BC000BE876B857C858D859E8520E030E04AE759
:102BD00055E40E941F02DC01CB018F839887A987EF
:102BE000BA876F81788589859A8520E030E040E852
:102BF0005FE30E94790388232CF481E090E09E83B8
:102C00008D833FC06F81788589859A8520E03FEF6D
:102C10004FE757E40E94190318164CF56B857C8525
:102C20008D859E8520E030E040E251E40E941F0245
:102C3000DC01CB01BC01CD010E944900DC01CB01CC
:102C40009E838D830FC080E991E09C838B838B8171
:102C50009C810197F1F79C838B838D819E810197E5
:102C60009E838D838D819E81009769F714C06F814B
:102C7000788589859A850E944900DC01CB019E8375
:102C80008D838D819E819A83898389819A81019721
:102C9000F1F79A8389838BE160E00E947A09EB96D1
:102CA0000FB6F894DEBF0FBECDBFCF91DF91089570
:102CB000DF93CF9300D00F92CDB7DEB789838981A0
:102CC000282F30E03B832A838A819B8182309105C3
:102CD000D1F02A813B812330310534F48A819B81F4
:102CE0008130910561F01AC02A813B812330310582
:102CF00071F08A819B818430910569F00FC080E179
:102D00000E94170B0BC08FE00E94170B07C08EE0CC
:102D10000E94170B03C08BE10E94170B0F900F90BE
:102D20000F90CF91DF910895DF93CF9300D00F9252
:102D3000CDB7DEB789838981282F30E03B832A8392
:102D40008A819B8181309105D1F02A813B8122309B
:102D500031052CF48A819B81009761F01EC02A8185
:102D60003B812230310581F08A819B81833091053E
:102D700081F013C08FE260E00E9464080EC08EE212
:102D800060E00E94640809C08DE260E00E9464086F
:102D900004C08BE260E00E9464080F900F900F90D7
:102DA000CF91DF910895DF93CF93CDB7DEB7EC9746
:102DB0000FB6F894DEBF0FBECDBF8AAF81E089AFFA
:102DC0008AAD282F30E03CAF2BAF8BAD9CAD81306E
:102DD000910509F497C02BAD3CAD223031052CF4A0
:102DE0008BAD9CAD009771F00BC22BAD3CAD22308A
:102DF000310509F407C18BAD9CAD8330910509F411
:102E000081C1FEC18FE20E94900A882309F0F8C1B7
:102E100080E090E0A8E4B2E48DAB9EABAFABB8AF7E
:102E20006DA97EA98FA998AD20E030E04AE755E46E
:102E30000E941F02DC01CB0189AB9AABABABBCABF0
:102E400069A97AA98BA99CA920E030E040E85FE35A
:102E50000E94790388232CF481E090E098AB8FA73F
:102E60003FC069A97AA98BA99CA920E03FEF4FE751
:102E700057E40E94190318164CF56DA97EA98FA975
:102E800098AD20E030E040E251E40E941F02DC01F6
:102E9000CB01BC01CD010E944900DC01CB0198AB04
:102EA0008FA70FC080E991E09EA78DA78DA59EA555
:102EB0000197F1F79EA78DA78FA598A9019798ABC9
:102EC0008FA78FA598A9009769F714C069A97AA957
:102ED0008BA99CA90E944900DC01CB0198AB8FA76C
:102EE0008FA598A99CA78BA78BA59CA50197F1F707
:102EF0009CA78BA78FE20E94900A882309F080C1CB
:102F000019AE7EC18EE20E94900A882309F078C132
:102F100080E090E0A8E4B2E48FA398A7A9A7BAA79D
:102F20006FA178A589A59AA520E030E04AE755E48D
:102F30000E941F02DC01CB018BA39CA3ADA3BEA307
:102F40006BA17CA18DA19EA120E030E040E85FE371
:102F50000E94790388232CF481E090E09AA389A34E
:102F60003FC06BA17CA18DA19EA120E03FEF4FE768
:102F700057E40E94190318164CF56FA178A589A58E
:102F80009AA520E030E040E251E40E941F02DC01FB
:102F9000CB01BC01CD010E944900DC01CB019AA309
:102FA00089A30FC080E991E098A38F8F8F8D98A19E
:102FB0000197F1F798A38F8F89A19AA101979AA3FE
:102FC00089A389A19AA1009769F714C06BA17CA17C
:102FD0008DA19EA10E944900DC01CB019AA389A387
:102FE00089A19AA19E8F8D8F8D8D9E8D0197F1F76E
:102FF0009E8F8D8F8EE20E94900A882309F000C177
:1030000019AEFEC08DE20E94900A882309F0F8C034
:1030100080E090E0A8E4B2E4898F9A8FAB8FBC8FF8
:10302000698D7A8D8B8D9C8D20E030E04AE755E4E8
:103030000E941F02DC01CB018D8B9E8BAF8BB88F62
:103040006D897E898F89988D20E030E040E85FE3CC
:103050000E94790388232CF481E090E09C8B8B8B79
:103060003FC06D897E898F89988D20E03FEF4FE7C3
:1030700057E40E94190318164CF5698D7A8D8B8DD3
:103080009C8D20E030E040E251E40E941F02DC0110
:10309000CB01BC01CD010E944900DC01CB019C8B1E
:1030A0008B8B0FC080E991E09A8B898B89899A89F3
:1030B0000197F1F79A8B898B8B899C8901979C8B5F
:1030C0008B8B8B899C89009769F714C06D897E89E9
:1030D0008F89988D0E944900DC01CB019C8B8B8BE2
:1030E0008B899C89988B8F878F8598890197F1F7B9
:1030F000988B8F878DE20E94900A882309F080C008
:1031000019AE7EC08BE20E94900A882309F078C035
:1031100080E090E0A8E4B2E48B879C87AD87BE870F
:103120006B857C858D859E8520E030E04AE755E4FF
:103130000E941F02DC01CB018F839887A987BA8781
:103140006F81788589859A8520E030E040E85FE3EB
:103150000E94790388232CF481E090E09E838D8384
:103160003FC06F81788589859A8520E03FEF4FE7E2
:1031700057E40E94190318164CF56B857C858D85E4
:103180009E8520E030E040E251E40E941F02DC0115
:10319000CB01BC01CD010E944900DC01CB019E8323
:1031A0008D830FC080E991E09C838B838B819C8110
:1031B0000197F1F79C838B838D819E8101979E837C
:1031C0008D838D819E81009769F714C06F8178850A
:1031D00089859A850E944900DC01CB019E838D83FD
:1031E0008D819E819A83898389819A810197F1F7E4
:1031F0009A8389838BE20E94900A882309F419AE8E
:1032000089ADEC960FB6F894DEBF0FBECDBFCF915F
:10321000DF910895DF93CF93CDB7DEB785E261E00C
:103220000E946408CF91DF910895DF93CF93CDB7CB
:10323000DEB76C970FB6F894DEBF0FBECDBF85E248
:1032400061E00E947A0980E090E0AAE7B4E4898F07
:103250009A8FAB8FBC8F698D7A8D8B8D9C8D20E082
:1032600030E04AE755E40E941F02DC01CB018D8B60
:103270009E8BAF8BB88F6D897E898F89988D20E06A
:1032800030E040E85FE30E94790388232CF481E07A
:1032900090E09C8B8B8B3FC06D897E898F89988D48
:1032A00020E03FEF4FE757E40E94190318164CF552
:1032B000698D7A8D8B8D9C8D20E030E040E251E469
:1032C0000E941F02DC01CB01BC01CD010E9449001C
:1032D000DC01CB019C8B8B8B0FC080E991E09A8B3A
:1032E000898B89899A890197F1F79A8B898B8B89C8
:1032F0009C8901979C8B8B8B8B899C89009769F7A4
:1033000014C06D897E898F89988D0E944900DC01E7
:10331000CB019C8B8B8B8B899C89988B8F878F851E
:1033200098890197F1F7988B8F8785E260E00E947A
:103330007A0980E090E0AAE7B4E48B879C87AD87A8
:10334000BE876B857C858D859E8520E030E04AE7D1
:1033500055E40E941F02DC01CB018F839887A98767
:10336000BA876F81788589859A8520E030E040E8CA
:103370005FE30E94790388232CF481E090E09E8330
:103380008D833FC06F81788589859A8520E03FEFE6
:103390004FE757E40E94190318164CF56B857C859E
:1033A0008D859E8520E030E040E251E40E941F02BE
:1033B000DC01CB01BC01CD010E944900DC01CB0145
:1033C0009E838D830FC080E991E09C838B838B81EA
:1033D0009C810197F1F79C838B838D819E8101975E
:1033E0009E838D838D819E81009769F714C06F81C4
:1033F000788589859A850E944900DC01CB019E83EE
:103400008D838D819E819A83898389819A81019799
:10341000F1F79A8389836C960FB6F894DEBF0FBEDE
:10342000CDBFCF91DF910895DF93CF93CDB7DEB7B6
:1034300080918B0080938E000E94EF0D0E943306D6
:103440000E94A30581E00E94761382E00E94761319
:1034500083E00E94761384E00E94761380E00E944D
:10346000941681E00E94941682E00E94941683E0F4
:103470000E9494160E940A1980E062E00E944F1395
:1034800080E690E00E94921281E062E00E944F1379
:1034900089E690E00E949212CF91DF910895DF9328
:1034A000CF93CDB7DEB70E94141A0E94681A0E940B
:1034B0007D1A82E00E94D316882311F40E94B41A68
:1034C00083E00E94D316882381F70E94E31AEDCF90
:1034D000DF93CF93CDB7DEB780E00E94D316882369
:1034E00031F482E00E94B6130E94A21A03C082E067
:1034F0000E94F613CF91DF910895DF93CF93CDB75C
:10350000DEB781E00E94D316882321F484E00E9474
:10351000B61303C084E00E94F613CF91DF910895A3
:10352000DF93CF93CDB7DEB783E00E94B61380E080
:1035300062E00E944F1383E790E00E949212CF91C5
:10354000DF910895DF93CF93CDB7DEB783E00E947C
:10355000F61380E062E00E944F138BE790E00E9438
:103560009212CF91DF910895DF93CF93CDB7DEB75D
:103570000E945E0690918C0080918E009817C1F495
:103580009091910081E08927809391008091910032
:10359000813019F40E94901A02C00E94A21A82E09F
:1035A0000E94D3168823D9F30BC081E00E94B61382
:1035B00082E00E94D3168823C1F381E00E94F613B3
:1035C000CF91DF910895DF93CF93CDB7DEB70E94FF
:1035D0005E0683E00E94D3168823E1F581E00E9415
:1035E000D316882379F580919200823019F41092D5
:1035F000920005C0809192008F5F8093920080912D
:103600009200882F90E0FC01E557FF4F8081809366
:103610008E0081E06AE00E944F1380918E000E942C
:10362000200E90918C0080918E00981711F00E94CE
:10363000A21A83E00E94D3168823D9F30BC081E03D
:103640000E94B61383E00E94D3168823C1F381E061
:103650000E94F613CF91DF910895DF93CF9300D0AE
:10366000CDB7DEB71A82198280E00E94E2059A8304
:10367000898389819A819C01220F331FC901880F98
:10368000991F880F991F820F931F2FEF33E0B90105
:103690000E945C1BCB010F900F90CF91DF9108959A
:1036A000991B79E004C0991F961708F0961B881F94
:1036B0007A95C9F780950895AA1BBB1B51E107C0F5
:1036C000AA1FBB1FA617B70710F0A61BB70B881FB2
:1036D000991F5A95A9F780959095BC01CD01089541
:1036E00097FB092E05260ED057FD04D014D00AD022
:1036F000001C38F450954095309521953F4F4F4F21
:103700005F4F0895F6F790958095709561957F4F7E
:103710008F4F9F4F0895A1E21A2EAA1BBB1BFD01DC
:103720000DC0AA1FBB1FEE1FFF1FA217B307E407A0
:10373000F50720F0A21BB30BE40BF50B661F771FF8
:10374000881F991F1A9469F76095709580959095D8
:103750009B01AC01BD01CF0108952F923F924F9282
:103760005F926F927F928F929F92AF92BF92CF9211
:10377000DF92EF92FF920F931F93CF93DF93CDB71A
:10378000DEB7CA1BDB0B0FB6F894DEBF0FBECDBF92
:1037900009942A88398848885F846E847D848C8463
:1037A0009B84AA84B984C884DF80EE80FD800C816C
:1037B0001B81AA81B981CE0FD11D0FB6F894DEBF4F
:0C37C0000FBECDBFED010895F894FFCFBF
:1037CC00434353204F4646200052204E2044203A7B
:1037DC00204E00434353204F4E2000434353204F71
:0E37EC0046460000000000000000004E44525F
:00000001FF
